{
  "contractName": "Licenses",
  "abi": [
    {
      "constant": true,
      "inputs": [
        {
          "name": "",
          "type": "bytes32"
        }
      ],
      "name": "store",
      "outputs": [
        {
          "name": "owner",
          "type": "address"
        }
      ],
      "payable": false,
      "stateMutability": "view",
      "type": "function"
    },
    {
      "constant": false,
      "inputs": [
        {
          "name": "hash",
          "type": "bytes32"
        },
        {
          "name": "prices",
          "type": "uint256[]"
        }
      ],
      "name": "addFile",
      "outputs": [
        {
          "name": "",
          "type": "bytes32"
        }
      ],
      "payable": false,
      "stateMutability": "nonpayable",
      "type": "function"
    },
    {
      "constant": false,
      "inputs": [
        {
          "name": "hash",
          "type": "bytes32"
        },
        {
          "name": "priceId",
          "type": "uint8"
        }
      ],
      "name": "buyFile",
      "outputs": [],
      "payable": true,
      "stateMutability": "payable",
      "type": "function"
    },
    {
      "constant": true,
      "inputs": [
        {
          "name": "hash",
          "type": "bytes32"
        }
      ],
      "name": "getBought",
      "outputs": [
        {
          "name": "",
          "type": "uint8[]"
        }
      ],
      "payable": false,
      "stateMutability": "view",
      "type": "function"
    },
    {
      "constant": true,
      "inputs": [
        {
          "name": "hash",
          "type": "bytes32"
        }
      ],
      "name": "isOwner",
      "outputs": [
        {
          "name": "",
          "type": "bool"
        }
      ],
      "payable": false,
      "stateMutability": "view",
      "type": "function"
    },
    {
      "constant": true,
      "inputs": [],
      "name": "test",
      "outputs": [
        {
          "name": "",
          "type": "bool"
        }
      ],
      "payable": false,
      "stateMutability": "pure",
      "type": "function"
    }
  ],
  "bytecode": "0x6060604052341561000f57600080fd5b6107fb8061001e6000396000f300606060405260043610610078576000357c0100000000000000000000000000000000000000000000000000000000900463ffffffff168063654cf88c1461007d578063b98754ac146100e4578063d41a171a1461010c578063eeac39d814610188578063f8a8fd6d146101c7578063fecfc9e2146101f4575b600080fd5b341561008857600080fd5b6100a2600480803560001916906020019091905050610277565b604051808273ffffffffffffffffffffffffffffffffffffffff1673ffffffffffffffffffffffffffffffffffffffff16815260200191505060405180910390f35b61010a60048080356000191690602001909190803560ff169060200190919050506102b5565b005b341561011757600080fd5b610131600480803560001916906020019091905050610403565b6040518080602001828103825283818151815260200191508051906020019060200280838360005b83811015610174578082015181840152602081019050610159565b505050509050019250505060405180910390f35b341561019357600080fd5b6101ad600480803560001916906020019091905050610546565b604051808215151515815260200191505060405180910390f35b34156101d257600080fd5b6101da6105d2565b604051808215151515815260200191505060405180910390f35b34156101ff57600080fd5b610259600480803560001916906020019091908035906020019082018035906020019080806020026020016040519081016040528093929190818152602001838360200280828437820191505050505050919050506105db565b60405180826000191660001916815260200191505060405180910390f35b60006020528060005260406000206000915090508060000160009054906101000a900473ffffffffffffffffffffffffffffffffffffffff16905081565b6000806000846000191660001916815260200190815260200160002090503373ffffffffffffffffffffffffffffffffffffffff168160000160009054906101000a900473ffffffffffffffffffffffffffffffffffffffff1673ffffffffffffffffffffffffffffffffffffffff161415151561033257600080fd5b60018160010180549050038260ff161115151561034e57600080fd5b34816001018360ff1681548110151561036357fe5b90600052602060002090015414151561037b57600080fd5b8060020160003373ffffffffffffffffffffffffffffffffffffffff1673ffffffffffffffffffffffffffffffffffffffff16815260200190815260200160002080548060010182816103ce919061070f565b916000526020600020906020918282040191900684909190916101000a81548160ff021916908360ff16021790555050505050565b61040b610749565b6000806000846000191660001916815260200190815260200160002090503373ffffffffffffffffffffffffffffffffffffffff168160000160009054906101000a900473ffffffffffffffffffffffffffffffffffffffff1673ffffffffffffffffffffffffffffffffffffffff161415151561048857600080fd5b8060020160003373ffffffffffffffffffffffffffffffffffffffff1673ffffffffffffffffffffffffffffffffffffffff16815260200190815260200160002080548060200260200160405190810160405280929190818152602001828054801561053957602002820191906000526020600020906000905b82829054906101000a900460ff1660ff16815260200190600101906020826000010492830192600103820291508084116105025790505b5050505050915050919050565b600080600080600085600019166000191681526020019081526020016000209150600090503373ffffffffffffffffffffffffffffffffffffffff168260000160009054906101000a900473ffffffffffffffffffffffffffffffffffffffff1673ffffffffffffffffffffffffffffffffffffffff1614156105c857600190505b8092505050919050565b60006001905090565b60008060008085600019166000191681526020019081526020016000209050600073ffffffffffffffffffffffffffffffffffffffff168160000160009054906101000a900473ffffffffffffffffffffffffffffffffffffffff1673ffffffffffffffffffffffffffffffffffffffff1614151561065957600080fd5b60408051908101604052803373ffffffffffffffffffffffffffffffffffffffff16815260200184815250600080866000191660001916815260200190815260200160002060008201518160000160006101000a81548173ffffffffffffffffffffffffffffffffffffffff021916908373ffffffffffffffffffffffffffffffffffffffff160217905550602082015181600101908051906020019061070192919061075d565b509050508391505092915050565b81548183558181151161074457601f016020900481601f0160209004836000526020600020918201910161074391906107aa565b5b505050565b602060405190810160405280600081525090565b828054828255906000526020600020908101928215610799579160200282015b8281111561079857825182559160200191906001019061077d565b5b5090506107a691906107aa565b5090565b6107cc91905b808211156107c85760008160009055506001016107b0565b5090565b905600a165627a7a72305820bab4645ecba8e3500267932ed9d72ac373e9dd816988d8e3a88c2f7df011ba530029",
  "source": "pragma solidity ^0.4.18;\n\ncontract Licenses {\n\n\tstruct File {\n\t\taddress owner;\n\t\tuint256[] prices;\n\t\tmapping( address => uint8[]) buyers;\n\t}\n\n\tmapping( bytes32 => File) public store;\n\n\tfunction addFile( bytes32 hash, uint256[] prices) public returns (bytes32)\n\t{\n\t\tFile storage f = store[hash];\n\t\trequire ( f.owner == address(0) );\n\t\tstore[hash] = File(msg.sender, prices);\n\t\treturn hash;\n\t}\n\n\tfunction buyFile(bytes32 hash, uint8 priceId ) public payable\n\t{\n\t\tFile storage f = store[hash];\n\t\trequire( f.owner != msg.sender );\n\t\trequire( priceId <= f.prices.length -1 );\n\t\trequire( f.prices[priceId] == msg.value);\n\t\tf.buyers[msg.sender].push(priceId);\n\t}\n\n\tfunction getBought(bytes32 hash) public view returns (uint8[])\n\t{\n\t\tFile storage f = store[hash];\n\t\trequire( f.owner != msg.sender );\n\t\treturn f.buyers[msg.sender];\n\t}\n\n\tfunction isOwner(bytes32 hash) public view returns (bool)\n\t{\n\t\tFile storage f = store[hash];\n\t\t//require ( f.owner != address(0));\n\t\tbool returnValue = false;\n\t\tif ( f.owner == msg.sender){\n\t\t\treturnValue = true;\n\t\t}\n\t\treturn returnValue;\n\t}\n\n\tfunction test() public pure returns (bool)\n\t{\n\t\treturn true;\n\t}\n}",
  "sourcePath": "/home/okinp/Work/ElectronApps/BlockLicenseApp/contracts/Licenses.sol",
  "compiler": {
    "name": "solc",
    "version": "0.4.19+commit.c4cbbb05.Emscripten.clang"
  },
  "schemaVersion": "1.0.1",
  "updatedAt": "2018-02-28T11:30:58.542Z"
}